:100000000C9434000C9446000C9446000C9446006A
:100010000C9446000C9446000C9446000C94460048
:100020000C9446000C9446000C9446000C94460038
:100030000C9446000C9446000C9446000C94460028
:100040000C9446000C9446000C9446000C94460018
:100050000C9446000C9446000C9446000C94460008
:100060000C9446000C94460011241FBECFEFD8E03C
:10007000DEBFCDBF25E0A0E0B1E001C01D92A03001
:10008000B207E1F70E9427010C9458010C9400007C
:1000900088E48093B800E9EBF0E080818C7F808376
:1000A000ECEB808184608083089584EA8093BC00B7
:1000B0008091BC0087FFFCCF8091B900887F0895B4
:1000C00084E98093BC0008958093BB0084E880930A
:1000D000BC008091BC0087FFFCCF8091B900887F75
:1000E0000895CF93DF930F92CDB7DEB789830E9437
:1000F000550088E70E94640080E00E9464008981C6
:100100000E94640084E98093BC000F90DF91CF913E
:10011000089587EA91E60197F1F700C000008EEAA2
:100120000E94710085ED0E94710080E80E947100BC
:1001300088EA0E9471008FE30E94710083ED0E94A3
:10014000710080E00E94710080E40E9471008DE8DF
:100150000E94710084E10E94710080E20E9471009F
:1001600080E00E94710081EA0E94710088EC0E9488
:1001700071008AED0E94710082E10E94710081E8A5
:100180000E9471008FEC0E94710084EA0E9471004D
:1001900086EA0E9471008FEA0C947100E0E0F1E0C1
:1001A00080E094E0DF019C011D9221503040E1F796
:1001B000089587FD20C06034F0F4E62FE695E695BB
:1001C000E69590E8E99FF0011124E80FF11DE05059
:1001D000FF4F2081677081E090E0DC0101C0AA0F31
:1001E0006A95EAF76A2F411519F02A2B20830895A2
:1001F0006095622360830895CF93DF930E9455003A
:1002000088E70E94640080E40E94640081E20E940A
:10021000710080E00E9471008FE70E94710082E20D
:100220000E94710080E00E94710087E00E947100CE
:10023000C0E0D1E089910E94640085E0C030D80719
:10024000C9F784E98093BC00DF91CF9108950E94A3
:1002500048000E9489000E94CE00C0E041E060E0BA
:100260008C2F0E94D90041E06FE38C2F0E94D900AF
:10027000CF5FC03899F7C0E041E06C2F80E00E946A
:10028000D90041E06C2F8FE70E94D900CF5FC034C6
:1002900099F7C0E041E06C2F8C2F880F0E94D900A5
:1002A000CF5FC034B9F70E94FC0080E090E0089571
:0402B000F894FFCFF0
:00000001FF
