:100000000C941F010C943C010C943C010C943C0199
:100010000C943C010C943C010C943C010C943C016C
:100020000C943C010C943C010C943C010C943C015C
:100030000C943C010C943C010C943C010C943C014C
:100040000C943C010C943C010C943C010C943C013C
:100050000C943C010C943C010C943C010C943C012C
:100060000C943C010C943C01000000000000005F77
:1000700000000007000700147F147F14242A7F2A41
:10008000122313086462364955225000050300000C
:10009000001C2241000041221C0014083E081408E4
:1000A000083E0808005030000008080808080060F2
:1000B00060000020100804023E5149453E00427F86
:1000C000400042615149462141454B311814127F8D
:1000D0001027454545393C4A494930017109050316
:1000E0003649494936064949291E0036360000007E
:1000F0005636000008142241002424242424004100
:100100002214080201510906324979413E7E11113B
:10011000117E7F494949363E414141227F4141227A
:100120001C7F494949417F090909013E4149497AF2
:100130007F0808087F00417F41002040413F017F48
:10014000081422417F404040407F020C027F7F0420
:1001500008107F3E4141413E7F090909063E415159
:10016000215E7F09192946464949493101017F012C
:10017000013F4040403F1F2040201F3F4038403F4C
:100180006314081463070870080761514945430068
:100190007F41410002040810200402010204404093
:1001A000404040000102040020545454787F4844E9
:1001B00044383844444420384444487F38545454E4
:1001C00018087E0901020C5252523E7F080404783E
:1001D00000447D40002040443D007F102844000042
:1001E000417F40007C041804787C0804047838447B
:1001F0004444387C14141408081414187C7C080433
:1002000004084854545420043F4440203C404020BB
:100210007C1C2040201C3C4030403C44281028449A
:100220000C5050503C4464544C440008364100008B
:10023000007F000000413608000201020402112480
:100240001FBECFEFD8E0DEBFCDBF12E0A0E0B1E02F
:10025000ECE7FBE002C005900D92A632B107D9F79A
:1002600026E0A6E2B2E001C01D92A632B207E1F795
:100270000E9437050C94BC050C94000088E980931B
:10028000B800E9EBF0E080818C7F808384E080938C
:10029000BC00089594EA9093BC009091BC0097FF35
:1002A000FCCF8093BB0084E88093BC008091BC00AD
:1002B00087FFFCCF9091B90084E98093BC00EFE305
:1002C000FCE93197F1F700C00000987F81E0983198
:1002D00009F080E0089584EA8093BC008091BC001E
:1002E00087FFFCCF8091B900887F089584E98093CF
:1002F000BC0008958093BB0084E88093BC0080918B
:10030000BC0087FFFCCF8091B900887F0895CF9310
:10031000DF930F92CDB7DEB789830E946B0188E728
:100320000E947A0180E00E947A0189810E947A010C
:1003300084E98093BC000F90DF91CF9108952FEF57
:1003400081EE94E0215080409040E1F700C0000031
:100350008EEA0E94870185ED0E94870180E80E9455
:10036000870188EA0E9487018FE30E94870183ED5D
:100370000E94870180E00E94870180E40E9487013B
:100380008DE80E94870184E10E94870180E20E943B
:10039000870180E00E94870181EA0E94870188EC42
:1003A0000E9487018AED0E94870182E10E948701F5
:1003B00081E80E9487018FEC0E94870184EA0E94F5
:1003C000870186EA0E9487018FEA0C948701E6E2A2
:1003D000F2E080E094E0DF019C011D92215030406A
:1003E000E1F708950E946B0180ED0E947A0185E794
:1003F0000E947A010E946B0181ED0E947A0184E8DB
:100400008093BC008091BC0087FFFCCF8091BB0033
:1004100094E99093BC00089587FD20C06034F0F407
:10042000E62FE695E695E69590E8E99FF001112420
:10043000E80FF11DEA5DFD4F2081677081E090E0DB
:10044000DC0101C0AA0F6A95EAF76A2F411519F07D
:100450002A2B208308956095622360830895CF93AB
:10046000DF9381E20E94870180E00E9487018FE78D
:100470000E94870182E20E94870180E00E9487013A
:1004800087E00E9487010E946B0188E70E947A0141
:1004900080E40E947A01C6E2D2E089910E947A014A
:1004A00086E0C632D807C9F784E98093BC00DF91A3
:1004B000CF9108952F923F924F925F926F927F92C9
:1004C0008F929F92AF92BF92CF92DF92EF92FF9264
:1004D0000F931F93CF93DF9300D000D00F92CDB72F
:1004E000DEB77C016C837D833A0129010B836A01AD
:1004F000CE18DF081AF46C01C41AD50A42012C8107
:100500003D81821A930A1AF449018418950841E042
:10051000242E312CE614F7041CF03FEF332E232C4D
:100520008C819D81841595057CF521E029831A82B3
:10053000860108191909AA24BB24A818B9084B81F7
:100540006C818E2D0E940C02E614F70429F42C8194
:100550003D8124153505E9F0C801880F991FA816BB
:10056000B90624F408191909E20CF31C8C159D0531
:1005700034F70C0D1D1D8C819D8129813A81820FDC
:10058000931F8C839D83DBCF8FEF9FEF89839A83AB
:10059000CFCF0F900F900F900F900F90DF91CF91D2
:1005A0001F910F91FF90EF90DF90CF90BF90AF9091
:1005B0009F908F907F906F905F904F903F902F9083
:1005C00008958F929F92AF92BF92CF92DF92EF9257
:1005D000FF920F931F93CF93DF934C015B01F42E97
:1005E000C02ED12CEC01C20FD11D219786019B0199
:1005F000AE010E945A02C5018F0D911D01977C0129
:100600009C01AE01BC01C4010E945A029701A401E1
:10061000B501C4010E945A029701AE01B501CE0195
:100620000E945A02DF91CF911F910F91FF90EF909E
:10063000DF90CF90BF90AF909F908F9008950895D6
:10064000CF92DF92FF920F931F93CF93DF9300D04F
:1006500000D00F92CDB7DEB78A836B83405240360D
:1006600078F5E5E04E9FC001112488599F4F8C8397
:100670009D83F12CEC81FD81C49000E010E0D12C31
:10068000FA81FF0DF983C601002E02C0959587956A
:100690000A94E2F780FF06C041E06B81600F898118
:1006A0000E940C020F5F1F4F0730110561F7F39492
:1006B0008C819D8101968C839D8395E0F912DACF20
:1006C0000F900F900F900F900F90DF91CF911F918F
:1006D0000F91FF90DF90CF9008957F928F929F921D
:1006E000AF92BF92CF92DF92EF92FF920F931F9340
:1006F000CF93DF9300D00F92CDB7DEB7082F698379
:10070000922E4052403670F5E5E04E9FC001112414
:1007100088599F4F8A839B83CE2EEA81FB81A490C8
:100720001981E12CF12CB12C792C700E812E890CC1
:10073000C5010E2C02C0959587950A94E2F780FDBD
:100740002CC0FFEFEF1AFF0A182D27E0E216F10484
:1007500069F7CA948A819B8101968A839B83090DDC
:10076000C110DBCF0F900F900F90DF91CF911F91B1
:100770000F91FF90EF90DF90CF90BF90AF909F9040
:100780008F907F900895D02E41E0612F8D2D0E9493
:100790000C02D394D710F8CF1F5F1811F4CFD1CF2C
:1007A0001F93CF93DF9300D00F92CDB7DEB7182FF2
:1007B00069834A835B83EA81FB814081411107C0E1
:1007C0000F900F900F90DF91CF911F9108958A8124
:1007D0009B8101968A839B836981812F0E942003DC
:1007E0001A5FE9CFFF920F931F93CF93DF9300D04F
:1007F0000F92CDB7DEB7182F6983F22E022F000FAC
:10080000020F000F4A835B83EA81FB814081411123
:1008100009C00F900F900F90DF91CF911F910F9112
:10082000FF9008958A819B8101968A839B832F2D57
:100830006981812F0E946D03100FE6CFCF93DF9364
:100840000F92CDB7DEB7898381E80E948701898145
:100850000F90DF91CF910C948701811519F087EAF1
:100860000C94870186EAFCCF811519F08FEA0C946D
:1008700087018EEAFCCF9F92AF92BF92CF92DF9218
:10088000EF92FF920F931F93CF93DF93B82ED62F43
:100890007A01A22E122F110F120F110F922E990C06
:1008A000990C990CC82FF701808181110CC0DF9140
:1008B000CF911F910F91FF90EF90DF90CF90BF905D
:1008C000AF909F900895F7018A3041F4D90D6701E8
:1008D0002FEFC21AD20ACB2D7601E5CF6F018081AE
:1008E000982F9F7D19F031968A30C1F7BC1668F4B5
:1008F000C6018E19189F802D11248C0F9927991FDE
:100900000817190614F4D90DCB2DEC14FD0490F042
:10091000F6018081803201F72C2F210F3327331FFE
:10092000C10F0217130614F4D90DCB2D3FEFC31AD4
:10093000D30AD2CFD03408F0BACF2A2DF701419193
:100940007F016D2F8C2F0E946D03C10FDECF90931E
:10095000C5008093C40082E08093C00088E080934B
:10096000C10086E08093C20008959091C00095FF79
:10097000FCCF8093C6000895CF93DF93EC0188816C
:10098000811103C0DF91CF91089521960E94B50493
:10099000F6CF1F93CF93DF93CDB7DEB761970FB636
:1009A000F894DEBF0FBECDBF182F81E1E0E0F1E08B
:1009B000DE01119601900D928A95E1F7812F8295C3
:1009C0008F70FE013196E80FF11D80810E94B50401
:1009D0001F70FE013196E10FF11D808161960FB607
:1009E000F894DEBF0FBECDBFDF91CF911F910C9465
:1009F000B5041F93CF93DF9300D000D000D0CDB7C4
:100A0000DEB79C0110E0EAE0F0E0892B61F480E3BE
:100A10000F900F900F900F900F900F90DF91CF914C
:100A20001F910C94B504C901BF010E94A105DE010C
:100A30001196A10FB11D1F5F805D8C93C9019B01B1
:100A40000A9788F711110AC00F900F900F900F901E
:100A50000F900F90DF91CF911F9108951150FE01DB
:100A60003196E10FF11D80810E94B504EBCF80E14A
:100A700090E00E94A704259A0E943E012FEF81EE8C
:100A800094E0215080409040E1F700C000000E94B7
:100A90009F010E94E70181E191E00E94BC0485E78B
:100AA0000E94F201082F80E391E00E94BC04802F95
:100AB0000E94C90488E891E00E94BC0485E591E0A9
:100AC000083639F001508BE891E00E3F10F483ECCA
:100AD00091E00E94BC0482EF91E00E94BC0440E0DF
:100AE00054E06FEF70E086E292E00E94B5050E944C
:100AF0002F020E94E70100E822E043E152E060E0BB
:100B000080E00E943B040E942F0200E0802F0E94A0
:100B10004A018115A1F02D9A2FEF81EE94E021502A
:100B200080409040E1F700C000002D982FEF81EE4B
:100B300094E0215080409040E1F700C000000E5F3B
:100B4000E5CFAA1BBB1B51E107C0AA1FBB1FA617FD
:100B5000B70710F0A61BB70B881F991F5A95A9F766
:100B600080959095BC01CD010895DC0101C06D9385
:0C0B700041505040E0F70895F894FFCF8A
:100B7C0030313233343536373839414243444546C7
:100B8C00003D3D3D204D5055363035302054657379
:100B9C00742053746172746564203D3D3D0D0A00F0
:100BAC0052656164696E672057484F5F414D5F49DC
:100BBC00207265676973746572202830783735291F
:100BCC003A203078005355434345535321204D5020
:100BDC00553630353020697320616C69766520613B
:100BEC006E6420726573706F6E64696E6720636FDC
:100BFC0072726563746C79210D0A004641494C454B
:100C0C004421204E6F20726573706F6E7365206681
:100C1C00726F6D204932432E20436865636B2077D9
:100C2C006972696E672F736F6C646572696E672E7B
:100C3C000D0A005741524E494E472120556E65789A
:100C4C0070656374656420726573706F6E73652E66
:100C5C0020436865636B204144302070696E2E0D13
:100C6C000A003D3D3D3D3D3D3D3D3D3D3D3D3D3D18
:100C7C003D3D3D3D3D3D3D3D3D3D3D3D3D3D3D3D98
:100C8C000D0A0048454C4C4F2C2042415245204DFA
:060C9C004554414C00002C
:00000001FF
