:100000000C9434000C9446000C9446000C9446006A
:100010000C9446000C9446000C9446000C94460048
:100020000C9446000C9446000C9446000C94460038
:100030000C9446000C9446000C9446000C94460028
:100040000C9446000C9446000C9446000C94460018
:100050000C9446000C9446000C9446000C94460008
:100060000C9446000C94460011241FBECFEFD8E03C
:10007000DEBFCDBF25E0A0E0B1E001C01D92A03001
:10008000B207E1F70E944A010C947E010C94000033
:1000900088E98093B800E9EBF0E080818C7F808371
:1000A00084E08093BC00089594EA9093BC00909102
:1000B000BC0097FFFCCF8093BB0084E88093BC001A
:1000C0008091BC0087FFFCCF9091B90084E98093B8
:1000D000BC00EFE3FCE93197F1F700C00000987F26
:1000E00081E0983109F080E0089584EA8093BC00B3
:1000F0008091BC0087FFFCCF8091B900887F089574
:1001000084E98093BC0008958093BB0084E88093C9
:10011000BC008091BC0087FFFCCF8091B900887F34
:100120000895CF93DF930F92CDB7DEB789830E94F6
:10013000750088E70E94840080E00E948400898125
:100140000E94840084E98093BC000F90DF91CF91DE
:1001500008952FEF81EE94E0215080409040E1F728
:1001600000C000008EEA0E94910085ED0E9491007F
:1001700080E80E94910088EA0E9491008FE30E942B
:10018000910083ED0E94910080E00E94910080E444
:100190000E9491008DE80E94910084E10E949100EC
:1001A00080E20E94910080E00E94910081EA0E941A
:1001B000910088EC0E9491008AED0E94910082E1FA
:1001C0000E94910081E80E9491008FEC0E949100B2
:1001D00084EA0E94910086EA0E9491008FEA0C94C2
:1001E0009100E0E0F1E080E094E0DF019C011D92ED
:1001F00021503040E1F7089587FD20C06034F0F4CD
:10020000E62FE695E695E69590E8E99FF001112442
:10021000E80FF11DE050FF4F2081677081E090E012
:10022000DC0101C0AA0F6A95EAF76A2F411519F09F
:100230002A2B208308956095622360830895CF93CD
:10024000DF9381E20E94910080E00E9491008FE79D
:100250000E94910082E20E94910080E00E94910041
:1002600087E00E9491000E94750088E70E94840048
:1002700080E40E948400C0E0D1E089910E94840063
:1002800085E0C030D807C9F784E98093BC00DF91CE
:10029000CF910895259A0E9448000E94A9000E94CB
:1002A000F10040E054E06FEF70E080E091E00E94E8
:1002B00077010E941F01C0E08C2F0E94540081151D
:1002C000A1F02D9A2FEF81EE94E0215080409040D4
:1002D000E1F700C000002D982FEF81EE94E021504F
:1002E00080409040E1F700C00000CE5FE5CFDC0128
:1002F00001C06D9341505040E0F70895F894FFCF4E
:00000001FF
